:020000040800F2
:1000000058E90020F1010008D1270008BD260008AA
:10001000CD27000821030008555900080000000002
:10002000000000000000000000000000452A000859
:10003000F103000800000000432A0008592A0008C4
:100040000B0200080B0200080B0200080B0200085C
:100050000B0200080B0200080B0200080B0200084C
:100060000B0200080B0200080B0200080B0200083C
:100070000B0200080B0200080B0200080B0200082C
:100080000B0200080B0200080B0200080B0200081C
:100090000B0200080B0200080B0200080B0200080C
:1000A0000B0200080B0200080B0200080B020008FC
:1000B0000B0200080B0200080B0200080B020008EC
:1000C0000B0200080B0200080B0200080B020008DC
:1000D0000B0200080B020008652F00080B02000845
:1000E0000B0200080B0200080B0200080B020008BC
:1000F0000B0200080B0200080B0200080B020008AC
:100100000B0200080B0200080B0200080B0200089B
:100110000B0200080B0200080B0200080B0200088B
:100120000B0200080B0200080B0200080B0200087B
:100130000B0200080B0200080B0200080B0200086B
:100140000B0200080B0200080B020008D52700086C
:100150000B0200080B0200080B0200080B0200084B
:100160000B0200080B0200080B0200080B0200083B
:100170000B0200080B020008000000000000000055
:100180000B0200080B0200080B0200080B0200081B
:100190000B0200080B020008000000000B02000820
:1001A0000B0200080B020008000000000000000025
:1001B0000B02000800000000000000000B02000815
:1001C0000B0200080B0200080B0200080B020008DB
:1001D0000B0200080B020008DFF810D000F08EF8C8
:1001E00000480047015A0008AFF3008058E900209A
:1001F0000648804706480047FEE7FEE7FEE7FEE7C1
:10020000FEE7FEE7FEE7FEE7FEE7FEE7152B000848
:10021000D90100082DE9F05F0546002092469B4673
:1002200088460646814640241BE02846414647460C
:10023000224600F053F853465A46C01A914110D353
:1002400011461846224600F03AF82D1A67EB0108CD
:100250004F4622460120002100F031F817EB00093B
:100260004E41201EA4F10104DFDC484631462A46F7
:100270004346BDE8F09F40EA01039B0703D009E035
:1002800008C9121F08C0042AFAD203E011F8013B82
:1002900000F8013B521EF9D27047D2B201E000F8DB
:1002A000012B491EFBD270470022F6E710B513461A
:1002B0000A4604461946FFF7F0FF204610BD202AE3
:1002C00004DB203A00FA02F1002070479140C2F1AD
:1002D000200320FA03F3194390407047202A04DBDF
:1002E000203A21FA02F00021704721FA02F3D040AF
:1002F000C2F120029140084319467047064C074D51
:1003000006E0E06840F0010394E8070098471034E5
:10031000AC42F6D3FFF764FFE05A0008005B000828
:1003200000BFFEE70346042B15D007DC7BB1012B91
:100330000ED0022B0DD0032B12D10BE0202B0BD0B3
:10034000212B0AD0222B09D0232B09D107E008E06A
:1003500007E006E005E004E003E002E001E000E081
:1003600000BF00BF002070470020704710B500227A
:100370000449054803F099F80449034803F086F856
:10038000002010BD2C0E0020500100202C06002063
:1003900070B504460D462146034803F077F802483D
:1003A00003F040F8002070BD5001002010B5034656
:1003B0000C460021084610BD2DE9F04104460D46CB
:1003C00000260A48D0F8BC72D7F8140210B10120F8
:1003D000BDE8F0812A462146044803F066F8034848
:1003E00003F016F906463046F2E7000050010020FF
:1003F000704772B600BFFEE770B50A480468001D7A
:100400000568001D0668344454B108220649204698
:1004100002F056F9042204491031284602F050F93E
:1004200070BD0000107AFF1F4600002070B5044622
:10043000A56D00F06BF9064694F83500022808D047
:100440008020606500BF002084F8340000BF0120D8
:1004500070BD2068006820F01600216808602068E0
:10046000406920F0800021684861206C08B9A06CC8
:1004700028B12068006820F0080021680860206822
:10048000006820F001002168086010E000F03EF9EB
:10049000801B05280BD920206065032084F83500D7
:1004A00000BF002084F8340000BF0320D0E720689C
:1004B000006800F001000028E8D194F85C103F20AB
:1004C0008840A860012084F8350000BF002084F82F
:1004D000340000BF00BFBBE7014691F83500022899
:1004E00003D08020486501207047052081F8350041
:1004F0000868006820F001000A6810600020F3E737
:1005000070B5044600F002F906462546681C10B195
:1005100004480078054400BF00F0F8F8801BA842AA
:10052000FAD370BD08000020F8B502460B4600253E
:10053000002400200021D1E0012606FA01F51E6802
:1005400006EA0504AC4274D11E7906F00306012EBA
:1005500004D01E7906F00306022E13D190684F00D6
:100560000326BE40B0434F00DE68BE40304390607B
:10057000506801268E40B0431E79C6F300168E40A7
:10058000304350601E7906F00306032E09D0D06870
:100590004F000326BE40B0434F009E68BE4030432C
:1005A000D0601E7906F00306022E13D1CF0802F1A7
:1005B000200656F827004E07F70E0F26BE40B04320
:1005C0004F07FF0E1E69BE403043CF0802F12006E0
:1005D00046F8270010684F000326BE40B0431E793E
:1005E00006F003064F00BE40304310605E6806F41C
:1005F0004036002E71D000BF00260096394E366876
:1006000046F48046374F3E603E46366806F48046E4
:10061000009600BF00BF344E8F0856F827008E07A3
:10062000370F0F26BE40B043304EB24202D10026F3
:100630001FE052E02E4EB24201D1012619E02D4EAC
:10064000B24201D1022614E02B4EB24201D1032660
:100650000FE02A4EB24201D104260AE0284EB242EF
:1006600001D1052605E0274EB24201D1062600E061
:1006700007268F073F0FBE4030431B4E8F0846F8BA
:100680002700214E3068A0435E6806F4801606B14C
:1006900020431D4E3060361D3068A0435E6806F46E
:1006A000001606B12043184E361D3060164E361F18
:1006B0003068A0435E6806F4003606B12043124E4F
:1006C000361F3060361F3068A0435E6806F48036FF
:1006D00006B120430C4E083E3060491C1029FFF43F
:1006E0002BAFF8BD443802400838014000000240FA
:1006F0000004024000080240000C024000100240CA
:100700000014024000180240083C01400148006803
:100710007047000000000020034800680349097882
:1007200008440149086070470000002008000020CC
:1007300010B50D48006840F400700B490860084689
:10074000006840F4806008600846006840F48070EB
:100750000860032000F0A2F80F2000F007F800F076
:100760002BF8002010BD0000003C024070B504468C
:100770000E4800784FF47A71B1FBF0F00C4909682B
:10078000B1FBF0F5284601F085FD08B1012070BDF0
:10079000102C07D200222146501E00F041F80548D7
:1007A000046001E00120F2E70020F0E708000020EB
:1007B0000C0000200400002008B500BF00200090BD
:1007C0000E48006840F480400C4908600846006804
:1007D00000F48040009000BF00BF00BF00200090E8
:1007E000081F006840F08050091F08600846006834
:1007F00000F08050009000BF00BF08BD44380240A8
:1008000001460846002809DB00F01F0301229A4038
:1008100043099B0003F1E023C3F8002100BF7047A8
:100820002DE9F05F80460D461646002705F094F846
:10083000074639462A46334601F00700C0F1070A49
:10084000BAF1040F02D94FF0040A01E0C0F1070A1F
:10085000D14600F1040ABAF1070F02D24FF0000AA4
:1008600001E0A0F1030AD4464FF0010A0AFA09FA9E
:10087000AAF1010A0AEA020A0AFA0CFA4FF0010B7D
:100880000BFA0CFBABF1010B0BEA030B4AEA0B046E
:100890002146404605F068F8BDE8F09F00BF00F033
:1008A0000702064B19684FF6FF031940044B0B4330
:1008B00043EA0221014B196000BF70470CED00E0D4
:1008C0000000FA0501460A680120C1F80005002071
:1008D00081F8F404906940F000609061506D024B23
:1008E000184350650020704703000010704702460F
:1008F0001068416200207047F0B50346154618683D
:10090000446A21B944EA05401E68B06219E01868DB
:10091000806A04EB1044002208E0186800F5827039
:1009200050F8220004EB1044501CC2B2481E904202
:10093000F3D844EA0547186800F582704E1E40F867
:1009400026700020F0BD10B50446D4F8080503F069
:10095000CAFA10BD70B504460D4605EBC50304F197
:100960003C0101EB83010A692946D4F8080503F02C
:10097000B5F970BD70B504460D4605EBC50304F529
:100980001F7101EB83010A692946D4F8080503F0B9
:1009900029FA70BD10B50446D4F8080503F0A6FA8C
:1009A00010BD2DE9F04104460D4605F08000802879
:1009B00008D105F00F0000EBC00104F13C0000EB92
:1009C000810607E005F00F0000EBC00104F51F7081
:1009D00000EB81063146206804F078FD0746384672
:1009E000BDE8F08170B504460E4606F08000802810
:1009F0000AD106F00F0000EBC00104F13C0000EB4F
:100A000081050120687009E006F00F0000EBC001CD
:100A100004F51F7000EB81050020687006F00F00E0
:100A2000287000BF94F8BC04012801D1022070BDD9
:100A3000012084F8BC0400BF2946206804F02AF88D
:100A400000BF002084F8BC0400BF00BFEFE770B512
:100A500004460E4606F00F006168884201D9012065
:100A600070BD06F0800080280AD106F00F0000EB70
:100A7000C00104F13C0000EB81050120687009E031
:100A800006F00F0000EBC00104F51F7000EB8105BC
:100A9000002068700020A87006F00F00287000BFCA
:100AA00094F8BC04012801D10220D9E7012084F880
:100AB000BC0400BF2946206804F0D0FA00BF002023
:100AC00084F8BC0400BF00BFCAE7024601F00F0073
:100AD00000EBC00302F51F7000EB8300006A704753
:100AE0002DE9F04705460E4690461F464FF0000997
:100AF00006F0800080280AD106F00F0000EBC0014C
:100B000005F13C0000EB81040120607009E006F073
:100B10000F0000EBC00105F51F7000EB8104002001
:100B2000607006F00F002070C4F80C8027716078A8
:100B300008B120782081022F01D10020607100BF10
:100B400095F8BC04012802D10220BDE8F0870120FD
:100B500085F8BC0400BF2146286803F0B1FE00BF41
:100B6000002085F8BC0400BF4846EEE72DE9F041BF
:100B700004460E461746984606F00F0000EBC001EB
:100B800004F51F7000EB81052F61C5F81880002067
:100B90002862687006F00F0028702069012800D1D3
:100BA0006F6106F00F0028B9227C2946206804F006
:100BB0002FF904E0227C2946206804F0E3FA0020A3
:100BC000BDE8F08170B504460D4605F00F00616880
:100BD000884201D9012070BD05F0800080280AD12B
:100BE00005F00F0000EBC00104F13C0000EB8106B2
:100BF0000120707007E005EBC50104F51F7000EBE4
:100C00008106002070700120B07005F00F00307078
:100C100000BF94F8BC04012801D10220DBE70120C9
:100C200084F8BC0400BF3146206804F05EFA05F089
:100C30000F0028B9217C04F2C442206804F0D6F9E0
:100C400000BF002084F8BC0400BF00BFC3E72DE94B
:100C5000F04104460E461746984606F00F0000EB9A
:100C6000C00104F13C0000EB81052F61C5F818803C
:100C7000002028620120687006F00F0028702069AB
:100C8000012800D16F6106F00F0028B9227C2946A7
:100C9000206804F0BDF804E0227C2946206804F0B6
:100CA00071FA0020BDE8F0812DE9FE4F0446D4F82A
:100CB00000B05E46206804F0F0FC002874D1206883
:100CC00004F02AFD08B9BDE8FE8F40F608008059FF
:100CD000C0F30D20C4F8FC04206804F01DFD00F0F2
:100CE0000200022805D12068406900F00200216856
:100CF0004861206804F010FD00F01000102845D174
:100D00002068806920F0100021688861DBF820905D
:100D100009F00F0000EBC00104F51F7000EB810A21
:100D2000C9F3434002281AD147F6F07009EA0000DF
:100D300030B3C9F30A125846DAF8101004F0F1FC87
:100D4000C9F30A11DAF810000844CAF81000C9F310
:100D50000A11DAF820000844CAF8200010E0C9F3AC
:100D6000434006280CD1082204F2C441584604F03E
:100D7000D8FCC9F30A11DAF820000844CAF82000A8
:100D80002068806940F0100021688861206804F0C4
:100D9000C3FC00F40020B0F5002F7BD100252068B3
:100DA00004F08AFC029072E003E3029800F0010074
:100DB000002868D0E9B2206804F0A1FC804608F061
:100DC000010048B1012106F5306000EB451081605B
:100DD0002946204601F038FD08F00800082809D10E
:100DE000082106F5306000EB451081602946204659
:100DF00001F0F8FC08F01000102805D1102106F5CC
:100E0000306000EB4510816008F00200022824D118
:100E1000DBF8140000F08000802807D140F60400C1
:100E2000805940F4806140F60400815105EBC50112
:100E300004F51F7000EB810A9AF80300012806D11F
:100E400000208AF80300E9B2204600F0BDFA022132
:100E500006F5306000EB4510816008F02000202886
:100E600005D1202106F5306000EB4510816008F4C3
:100E70000050B0F5005F06D14FF4005106F5306028
:100E800000EB451081606D1C0298400802900298AA
:100E900000288AD1206804F03FFC00F48020B0F5DF
:100EA000802F7DD1206804F0FDFB029000259AE0A0
:100EB000029800F00100002873D0E9B2206804F025
:100EC00005FC804608F00100F0B305F00F01012099
:100ED0008840019040F634008159019821EA0000D1
:100EE00040F634018851012106F5106000EB4510F1
:100EF00081602069012824D105EBC50104F13C0083
:100F000000EB810005EBC502016904F13C0000EB38
:100F10008200C068014405EBC50204F13C0000EB0F
:100F2000820001616DB905EBC50104F13C0000EBE5
:100F30008100806928B904F2C4420121206804F0CC
:100F400055F8E9B2204600E001E0FFF703FD08F0A4
:100F50000800082805D1082106F5106000EB4510AF
:100F6000816008F01000102805D1102106F51060EE
:100F700000EB4510816008F04000402805D1402179
:100F800006F5106000EB4510816008F002000228B1
:100F90001DD12946584604F041FB05EBC50101E08F
:100FA00025E01CE004F13C0000EB810A9AF8030004
:100FB000012806D100208AF80300E9B2204600F09B
:100FC000FAF9022106F5106000EB4510816008F087
:100FD0008000802803D12946204601F0D7FC6D1CF3
:100FE000029840080290029800287FF461AF2068C0
:100FF00004F092FB00F00040B0F1004F1CD140F62D
:101000000400805920F0010140F60400815194F859
:10101000F404012807D1002084F8F40400212046BC
:10102000FFF764FC02E0204600F004FB2068406902
:1010300000F0004021684861206804F06DFB00F476
:101040000060B0F5006F0ED140F60800805900F046
:10105000010010B1204600F045FB2068406900F413
:10106000006021684861206804F056FB00F00060D1
:10107000B0F1006F19D12068406900F0006021686C
:10108000486194F8F40468B9012084F8F4042068F5
:10109000406DC0F38300C4F8F80401212046FFF737
:1010A00025FC02E0204600F01DFB206804F034FB24
:1010B00000F48050B0F5805F7ED140F60400805986
:1010C00020F0010140F6040081511021206804F055
:1010D000A5FA002732E04FF67F3106F5106000EBED
:1010E0004710816006F5106000EB4710006820F49F
:1010F000001106F5106000EB471001604FF67F31DC
:1011000006F5306000EB4710816006F5306000EBBB
:101110004710006820F4001106F5306000EB47101E
:10112000016006F5306000EB4710006840F0006198
:1011300006F5306000EB471001607F1C6068B84224
:10114000C9D840F61C00805940F0011140F61C003F
:101150008151206B70B1D6F8840840F00B01C6F8BD
:10116000841840F64400805940F00B0140F64400DA
:1011700081510FE040F61400805942F22B010843E0
:1011800040F614018851081F805940F00B014FF4BC
:1011900001608151D6F8000820F4FE60C6F800080E
:1011A000217C04F2C442206803F020FF20684069DB
:1011B00000F48050216800E000E04861206804F0FD
:1011C000ABFA00F40050B0F5005F17D1206803F0CF
:1011D000DFFB206804F04EFAE06000F085FD00902F
:1011E000227B2068009904F01FFB204600F010FAD3
:1011F0002068406900F4005021684861206804F0CC
:101200008BFA00F00800082808D1204600F019FAEF
:101210002068406900F0080021684861206804F0F7
:101220007BFA00F08000802818D1DBF8180020F04D
:101230008000CBF8180001250DE005EBC50104F591
:101240001F7000EB8100C078012803D1E9B220466D
:10125000FFF7A7FB6D1C6068A842EED8206804F079
:101260005BFA00F48010B0F5801F2DD1012522E03B
:1012700006F5106000EB4510D0F8009005EBC501B5
:1012800004F13C0000EB81000079012812D109F043
:101290000040B0F1004F0DD1012105EBC50204F172
:1012A0003C0000EB8200C170E8B240F080012046B3
:1012B000FFF777FB6D1C6068A842D9D820684069A9
:1012C00000F4801021684861206804F025FA00F4D9
:1012D0000010B0F5001F44D1012538E006F530605C
:1012E00000EB4510D0F8009005EBC50104F51F7028
:1012F00000EB81000079012828D109F00040B0F10D
:10130000004F23D109F4803094F8FC1401F001015E
:1013100088421BD1012105EBC50204F51F7000EBCB
:101320008200C170DBF8180040F08000CBF8180094
:10133000DBF8140000F0800040B940F6040080594A
:1013400040F4007140F60400815103E06D1C6068B8
:10135000A842C3D800BF2068406900F4001021688B
:101360004861206804F0D8F900F08040B0F1804F67
:1013700008D12046FFF7E7FA2068406900F0804076
:1013800021684861206804F0C7F900F004000428CF
:101390000FD12068D0F8049009F00400042802D18D
:1013A0002046FFF7F7FA2068406840EA0900216804
:1013B000486000BF87E470B504460D462946D4F85E
:1013C000080502F001FE70BD70B504460D462946C1
:1013D000D4F8080502F01CFE70BD70B58AB0044652
:1013E00014B901200AB070BD266894F8BD0428B96C
:1013F000002084F8BC04204600F0A8F8032084F8FC
:10140000BD04F06B00F4807008B9002121612068F0
:1014100003F0F6FC282204F110016846FEF72BFFCA
:1014200094E80F0003F0C8FA20B1022084F8BD044C
:101430000120D7E70021206804F0A3F9002531E05E
:10144000012105EBC50204F13C0000EB8200417074
:1014500005EBC50104F13C0000F8215005EBC50186
:1014600000EB81000581002105EBC50204F13C0081
:1014700000EB8200017105EBC50204F13C0000EBBA
:101480008200C16005EBC50204F13C0000EB820064
:10149000016105EBC50204F13C0000EB82008161B3
:1014A000681CC5B26068A842CAD800252AE000219D
:1014B00005EBC50204F51F7000EB8200417005EBDF
:1014C000C50104F51F7000F82150002105EBC5028D
:1014D00000EB8200017105EBC50204F51F7000EB03
:1014E0008200C16005EBC50204F51F7000EB8200AD
:1014F000016105EBC50204F51F7000EB82008161FC
:10150000681CC5B26068A842D1D8282204F1100135
:101510006846FEF7B0FE94E80F0003F085FB20B1AB
:10152000022084F8BD0401205CE7002084F8380024
:10153000012084F8BD04606A012802D12046FFF72B
:10154000C1F9206803F05EFB00204BE710B59CB0AA
:101550000446142117A8FEF7A7FE582101A8FEF79C
:10156000A3FE2068B0F1A04F4CD1202001900020B4
:101570000D9001A800F0D0F808B1FEF73AFF00BFC7
:10158000002000902048006840F001001E490860DB
:101590000846006800F00100009000BF00BF4FF453
:1015A000C0501790022018900020199003201A9024
:1015B0000A201B9017A91548FEF7B6FF00BF124876
:1015C000001D006840F080000F49091D086000BF41
:1015D000002000900C481430006840F480400A4914
:1015E000143108600846006800F48040009000BF95
:1015F00000BF00BF002211464320FFF711F943202E
:10160000FFF7FEF81CB010BD303802400000024069
:1016100070B504460125E068022801D0FEF7E9FE16
:101620002946D4F8080502F09CFDD4F8080502F01C
:1016300043FD70BD10B50446D4F8080502F072FDF4
:1016400010BD10B50446D4F8080502F076FD10BDB3
:1016500070B504460D4600BF94F8BC04012801D1C2
:10166000022070BD012084F8BC0400BF84F838500B
:101670002946206804F0B9F800BF002084F8BC04B3
:1016800000BF00BFEDE710B5044604F2C441D4F832
:10169000080502F07DFD10BD70B50446256800BF49
:1016A00094F8BC04012801D1022070BD012084F807
:1016B000BC0400BFA06A012806D1A069012803D09C
:1016C000A86B40F48030A863206803F075FF2068A1
:1016D00003F086FA00BF002084F8BC0400BF00BFFE
:1016E000E3E7000010B50446D4F8080502F0ADFDAC
:1016F0002068D0F8000E40F001002168C1F8000E0B
:10170000206A28B10348006840F0060001490860DB
:1017100010BD000010ED00E02DE9F843044600255F
:1017200000260027A846207800F0010058B1FE48A6
:10173000006820F0C060E1690843FB490860E06987
:1017400008B94FF00108207800F0020002280BD100
:10175000F548006820F0C050216A0843F24908604B
:10176000206A08B94FF00108208800F40050B0F555
:10177000005F19D1EC48006820F44010A16C0843C8
:10178000E9490860A06C08B94FF00108A06CB0F5F9
:10179000001F09D1E448006820F4F8516069401E38
:1017A00041EA0020E0490860208800F48040B0F55C
:1017B000804F19D1DC48006820F44000E16C0843F8
:1017C000D9490860E06C08B94FF00108E06CB0F549
:1017D000000F09D1D448006820F4F8516069401E18
:1017E00041EA0020D0490860207800F0080008286D
:1017F0007ED100BF00200090CB484C38006840F0FC
:101800008050C9494C3908600846006800F0805093
:10181000009000BF00BFC548006840F48070C34915
:101820000860FEF773FF054607E0FEF76FFF401BF9
:10183000022802D90320BDE8F883BC48006800F400
:1018400080700028F1D0B8481C38006800F4407659
:101850004EB3A08C00F44070B04224D0B2481C3883
:10186000006820F440760120B1490860002008603B
:10187000AD481C380660006800F0010098B1FEF722
:1018800045FF054608E0FEF741FF401B41F2883165
:10189000884201D90320CEE7A3481C380068C0F372
:1018A00040000028EFD000BFA08C00F44070B0F5DD
:1018B000407F0CD19C488438006820F4F8109D4A81
:1018C000616A1140084398498439086007E09648E6
:1018D0008438006820F4F8109349843908609248ED
:1018E0001C380068A18CC1F30B0108438E4900E04D
:1018F00002E01C39086000BF207800F004000428D2
:1019000003D194F854008C490860207800F010004E
:10191000102809D184480830006820F44000E16AAA
:101920000843814908310860207800F02000202811
:101930000FD17D480830006820F00060216B08431B
:10194000794908310860206BB0F1006F01D14FF088
:101950000108207800F04000402809D17248083082
:10196000006820F08050A16A08436F490831086080
:10197000B8F1010F02D0206880287DD100206F4986
:101980008866FEF7C3FE054606E0FEF7BFFE401B75
:10199000022801D903204EE763488C380068C0F361
:1019A000C0600028F1D16649206D0860207800F001
:1019B000010008B1E069D0B1207800F002000228EF
:1019C00001D1206A98B1207800F02000202803D1AE
:1019D000206BB0F1006F0AD0207800F04000402862
:1019E00012D1A06A80B9206BB0F1006F0CD1D4E99C
:1019F000011041EA8011207B41EA0061207C41EA2C
:101A00000070494908390860208800F40050B0F59A
:101A1000005F01D1A06C38B1208800F48040B0F59F
:101A2000804F1BD1E06CC8B93F4808380068C0F34C
:101A30000367D4E9011041EA801040EA0761207C85
:101A400041EA00703849083908603748006820F0DA
:101A50001F00A169491E084333490860207800F03F
:101A6000800080280ED1D4E9011041EA8011207B4A
:101A700041EA0061207C00E019E041EA00702A4957
:101A80000839086001202D498866FEF73FFE0546AB
:101A900006E0FEF73BFE401B022801D90320CAE600
:101AA00021488C380068C0F3C0600028F1D020883D
:101AB00000F48070B0F5807F07D11B48006820F0EB
:101AC0000040616B084318490860208800F40070EA
:101AD000B0F5007F07D11448006820F40040A16BE6
:101AE000084311490860208800F48060B0F5806FD9
:101AF00007D10D48006820F00040E16B08430A4917
:101B00000860208800F40060B0F5006F07D1064837
:101B1000006820F48040216C084303490860208855
:101B200000F480500EE000008C380240007000404D
:101B3000400E4742FFFCFF0FE011474200004742C2
:101B4000D8104742B0F5805F07D10548006820F003
:101B50004040616C08430249086000206BE60000C9
:101B60009438024070B504460D460CB9012070BD92
:101B70005848006800F00700A84209D255490D7086
:101B80000846006800F00700A84201D00120EEE7F7
:101B9000207800F0020002281DD1207800F0040017
:101BA000042805D14C48006840F4E0504A490860D8
:101BB000207800F00800082805D14748006840F464
:101BC0006040454908604448006820F0F000A16882
:101BD000084341490860207800F00100A8B360681C
:101BE000012807D13C4808380068C0F34040B8B924
:101BF0000120BCE76068022802D06068032807D192
:101C0000354808380068C0F3406048B90120AEE7A5
:101C1000314808380068C0F3400008B90120A6E741
:101C20002D48006820F00300616808432A490860D5
:101C3000FEF76CFD064609E0FEF768FD801B41F2E9
:101C40008831884202D9032091E707E022480068E2
:101C500000F00C006168B0EB810FEDD11D48006809
:101C600000F00700A84209D91A490D70084600681B
:101C700000F00700A84201D0012078E7207800F0AA
:101C80000400042807D11448006820F4E050E168FB
:101C9000084311490860207800F00800082808D19E
:101CA0000D48006820F46040216940EAC1000A49FB
:101CB000086000F03FF808490968C1F30311074ABA
:101CC000515CC8400649086006480068FEF74EFDB2
:101CD00000204CE7003C024008380240C85A000887
:101CE0000C0000200400002001480068704700003C
:101CF0000C00002000B5FFF7F7FF04490968C1F3A5
:101D00008221034A515CC84000BD000008380240EF
:101D1000D85A000800B5FFF7E7FF04490968C1F386
:101D20004231034A515CC84000BD000008380240FF
:101D3000D85A00082DE9F047002400250026A146C6
:101D40002548006800F00C0020B1042805D00828C0
:101D50003AD105E0DFF8849039E0DFF8849036E08E
:101D60001D48001F006800F03F041B48001F00686A
:101D700000F4800078B11A481749091F0968C1F3B7
:101D80008811A0FB01700146224600233846FEF769
:101D900041FA05460EE011480F49091F0968C1F3D1
:101DA0008811A0FB01700146224600233846FEF749
:101DB00031FA05460848001F0068C0F30140401C86
:101DC0004600B5FBF6F902E0DFF8109000BF00BF57
:101DD0004846BDE8F0870000083802400024F400BF
:101DE000001BB700F8B504460CB90120F8BD2078F7
:101DF00000F00100002874D0F748006800F00C00E3
:101E000004280DD0F448006800F00C00082813D115
:101E1000F148001F006800F48000B0F5800F0BD17E
:101E2000ED4808380068C0F34040002859D0606889
:101E3000002856D10120D9E700BF6068B0F5803F87
:101E400008D1E5480838006840F48030E249083994
:101E500008601EE06068B0F5A02F0DD1DE4808389C
:101E6000006840F48020DC490839086008460068B2
:101E700040F4803008600CE0D7480838006820F44F
:101E80008030D549083908600846006820F4802071
:101E9000086000BF606890B1FEF738FC054606E0B8
:101EA000FEF734FC401B642801D903209EE7CA4892
:101EB00008380068C0F340400028F1D011E0FEF778
:101EC00025FC054606E0FEF721FC401B642801D9ED
:101ED00003208BE7C04808380068C0F34040002862
:101EE000F1D1207800F0020002285FD1BA480068E2
:101EF00000F00C0058B1B848006800F00C00082849
:101F00001CD1B548001F006800F48000B0B9B24889
:101F100008380068C0F3400020B1E068012801D013
:101F2000012063E7AC480838006820F0F800216918
:101F300040EAC100A8490839086037E0E06800B30A
:101F40000120A6490860FEF7E1FB054606E0FEF722
:101F5000DDFB401B022801D9032047E79E480838D3
:101F60000068C0F340000028F1D09B4808380068A2
:101F700020F0F800216940EAC1009749083908605B
:101F800014E0002095490860FEF7C0FB054606E016
:101F9000FEF7BCFB401B022801D9032026E78E4830
:101FA00008380068C0F340000028F1D1207800F024
:101FB000080008282CD16069A8B101208849086070
:101FC000FEF7A4FB054606E0FEF7A0FB401B022837
:101FD00001D903200AE780486C300068C0F3400054
:101FE0000028F1D014E000207D490860FEF78EFB48
:101FF000054606E0FEF78AFB401B022801D90320B4
:10200000F4E675486C300068C0F340000028F1D158
:10201000207800F00400042870D100276E48383082
:10202000006800F0805090B900BF002000906A481E
:102030003830006840F08050674938310860084601
:10204000006800F08050009000BF00BF0127654885
:10205000006800F48070B0B96248006840F4807095
:1020600060490860FEF752FB054606E0FEF74EFBAE
:10207000401B022801D90320B8E65A48006800F442
:1020800080700028F2D000BFA068012808D1524813
:102090006830006840F001004F49683108601DE079
:1020A000A06805280DD14C486830006840F0040055
:1020B0004949683108600846006840F0010008603E
:1020C0000CE045486830006820F001004249683162
:1020D00008600846006820F00400086000BFA0689F
:1020E000A8B1FEF713FB054609E0FEF70FFB401B06
:1020F00041F28831884202D9032077E626E036484B
:1021000068300068C0F340000028EED013E0FEF70E
:10211000FDFA054608E0FEF7F9FA401B41F2883166
:10212000884201D9032061E62B4868300068C0F37B
:1021300040000028EFD1012F07D127483830006830
:1021400020F0805024493831086000BFA069002881
:1021500050D02148006800F00C00082860D0A06929
:10216000022848D100201D490866FEF7CFFA05462F
:1021700006E0FEF7CBFA401B022801D9032035E622
:10218000154808380068C0F340600028F1D1D4E950
:1021900007010843616A40EA81110122A06AC2EB8B
:1021A000500041EA00412C20005D41EA00613020EE
:1021B000005D41EA00700849091F086001200749D5
:1021C0000866FEF7A3FA05460EE0FEF79FFA401BED
:1021D000022809D9032009E60838024000004742D6
:1021E000800E47420070004028480068C0F34060FD
:1021F0000028EAD048E0002025490866FEF786FA64
:10220000054606E0FEF782FA401B022801D90320AA
:10221000ECE51E480068C0F340600028F2D133E0CE
:10222000A069012800D1E1E51848001D0668A069F1
:10223000012827D006F48001E069814222D106F00E
:102240003F01206A81421DD147F6C0703040616A6B
:10225000B0EB811F16D106F440310122A06AC2EB17
:102260005000B1EB004F0DD106F070612C20005DE5
:10227000B1EB006F06D106F0E0413020005DB1EB1C
:10228000007F01D00120B1E50020AFE50038024019
:102290000000474270B504462546681EB0F1807FB5
:1022A00001D301200FE0681E4FF0E02148610F21AB
:1022B0004FF0FF3003F058FB00204FF0E021886121
:1022C00007200861002070BD704770472DE9F84F66
:1022D0000446206805682068C668206847694FF092
:1022E0000009CA4605F00F09B9F1000F0AD105F03F
:1022F000200038B106F0200020B1204600F064FC38
:10230000BDE8F88FB9F1000F7CD007F0010018B9D3
:1023100006F49070002875D005F0010030B106F485
:10232000807018B1206C40F00100206405F00400BA
:1023300030B107F0010018B1206C40F002002064B9
:1023400005F0020030B107F0010018B1206C40F038
:102350000400206405F0080048B106F0200010B920
:1023600007F0010018B1206C40F008002064206CD8
:10237000002846D005F0200028B106F0200010B15A
:10238000204600F021FC20684069C0F3801A206CD0
:1023900000F0080010B9BAF1000F2DD0204600F06F
:1023A000CDFB2068406900F04000402820D100BFEC
:1023B00000BF2168143151E8001F21F0400021685E
:1023C000143141E80002002AF3D100BFA06B50B1E4
:1023D0007548A16B0865A06BFEF77EF888B1A06B0D
:1023E000016D88470DE02046FFF76FFF09E009E027
:1023F0002046FFF76AFF04E02046FFF766FF002053
:1024000020647DE7206B012876D105F010000028BC
:1024100072D006F010000028FAD000BF0020009013
:1024200020680068009020684068009000BF00BFEE
:102430002068406900F0400040285ED1A06B006831
:1024400040681FFA80F8B8F1000F54D0A08D4045C5
:1024500051DDA4F82E80A06BC069B0F5807F43D019
:1024600000BF00BF21680C3151E8001F21F48070CB
:1024700021680C3141E80002002AF3D100BF00BFFF
:1024800000BF2168143151E8001F21F001002168CC
:10249000143141E80002002AF3D100BF00BF00BFA1
:1024A0002168143151E8001F21F0400021681431E7
:1024B00041E80002002AF3D100BF202084F83E004A
:1024C0000020206300BF00BF21680C3151E8001FCD
:1024D00021F0100021680C3141E80002002AF3D1FC
:1024E00000BFA06BFDF7A2FFA08DE28D801A81B224
:1024F0002046FFF7E9FE03E740E0A08DE18D401A9A
:102500001FFA80F8E08DC0B3B8F1000F35D000BFDE
:1025100000BF21680C3151E8001F21F49070216840
:102520000C3141E80002002AF3D100BF00BF00BF18
:102530002168143151E8001F21F001002168143195
:1025400041E80002002AF3D100BF202084F83E00B9
:102550000020206300BF00BF21680C3151E8001F3C
:1025600021F0100021680C3141E80002002AF3D16B
:1025700000BF41462046FFF7A7FEC1E605F08000F8
:1025800030B106F0800018B1204600F0BBFCB7E681
:1025900005F0400030B106F0400018B1204600F0D0
:1025A00003FBADE600BFABE6292B000810B50446DF
:1025B0000CB9012010BDA06900B100E000BF94F883
:1025C0003D0028B9002084F83C00204600F028F89F
:1025D000242084F83D002068C06820F40050216861
:1025E000C860204600F06CFB2068006920F4904031
:1025F000216808612068406920F02A00216848614C
:102600002068C06840F400502168C8600020206441
:10261000202084F83D0084F83E000020CAE7000036
:1026200010B586B00446142101A8FDF73DFE1F49F0
:102630002068884237D100BF002000901C48006805
:1026400040F400301A4908600846006800F4003081
:10265000009000BF00BF00BF002000901448103859
:10266000006840F00100124910390860084600680F
:1026700000F00100009000BF00BF0C20019002207C
:10268000029000200390032004900720059001A9E8
:102690000848FDF749FF002211462620FEF7C0F842
:1026A0002620FEF7ADF806B010BD00000044004043
:1026B00040380240000002407047704700BFFEE70C
:1026C00030B50B46002100BF16E00A24B4EB107FA2
:1026D00005D9302404EB107403F8114005E04124BF
:1026E00004EB10740A3C03F81140000100254C0073
:1026F000641C1D554C1CE1B29142E6DB30BD00006C
:1027000008B500BF002000900E48006840F080002F
:102710000C4908600846006800F08000009000BF87
:1027200000BF00BF002000900846006840F0010094
:1027300008600846006800F00100009000BF00BF7C
:1027400008BD00003038024010B50B480B49086046
:102750004FF4E1304860002108488160C1600161A8
:102760000C21416100218161C161FFF71FFF08B1A8
:10277000FDF73FFE10BD0000004400400C010020AA
:1027800010B500220D490E4801F065FA08B1FDF7B9
:1027900030FE0C490A4801F095FD08B1FDF729FE0D
:1027A0000949074800F066FE08B1FDF722FE04481B
:1027B00001F08AFE08B1FDF71CFE10BD10000020DC
:1027C00050010020840000206000002000BFFEE7D0
:1027D00000BFFEE710B50248FEF766FA10BD000024
:1027E0002C1600202DE9F04704460D462668374692
:1027F000D6F8408007F5306000EB4510D0F808901F
:10280000104880450BD909F40040B0F5004F06D1BF
:102810004FF4004107F5306000EB45108160204621
:10282000FEF731FF0748804508D92069012805D106
:1028300004F2C4420121206802F0D8FB0020BDE868
:10284000F08700000A30544F2DE9F04705460C464A
:10285000D5F800904E46D9F840A006F5306000EB60
:102860004410D0F808802869012855D108F00800E4
:1028700008280FD1434882450BD908F40040B0F531
:10288000004F7BD14FF4004106F5306000EB44105F
:10289000816073E008F02000202806D1202106F591
:1028A000306000EB4410816068E008F028000028E8
:1028B00064D1344882450CD908F40040B0F5004F8B
:1028C00007D14FF4004106F5306000EB4410816001
:1028D00054E004EBC40105F51F7000EB810706F519
:1028E000306000EB4410F9690069C0F31200081A67
:1028F000386264B9B86930B905F2C4420121286868
:1029000002F074FB03E0396A386908443861E1B2C7
:102910002846FEF72FF831E01B4882451BD108F40A
:102920000040B0F5004F07D14FF4004106F530608C
:1029300000EB4410816021E008F02000202805D140
:10294000202106F5306000EB44108160E1B228469A
:10295000FEF710F812E06CB904EBC40105F51F7026
:1029600000EB8100806928B905F2C4420021286883
:1029700002F03CFBE1B22846FDF7FCFF0020BDE879
:10298000F08700000A30544F0A31544F2DE9F84FB8
:1029900007460E46D7F80090C84606EBC60107F179
:1029A0003C0000EB8104A169206A884202D9012021
:1029B000BDE8F88F216AA069451AE068A84200D2F4
:1029C000E568E81C4FEA900A17E0216AA069451AF9
:1029D000E068A84200D2E568E81C4FEA900A387C1B
:1029E000ABB2F2B200904846216902F091FF206933
:1029F00028442061206A2844206208F5106000EB1A
:102A00004610806980B2504506D3A169206A884289
:102A100002D2A0690028D8D1216AA06988420ED8C4
:102A200006F00F01012000FA01FB40F6340050F8D7
:102A3000080020EA0B0040F6340141F808000020AD
:102A4000B6E77047704730B501460A461378521C06
:102A5000147843EA042030BD10B5FDF75DFE10BDCB
:102A600000B593B0342106A8FDF71EFC142101A87F
:102A7000FDF71AFC00BF002000902448006840F0D9
:102A80008050224908600846006800F0805000909D
:102A900000BF00BF00BF002000901D48006840F448
:102AA00040401B4908600846006800F44040009020
:102AB00000BF00BF012006900004079002200C9088
:102AC00041050D9106210E9148210F91022110918F
:102AD000032111910221129106A8FFF783F908B191
:102AE000FDF787FC0F200190022002900020039048
:102AF0004FF48050049000200590022101A8FFF7B8
:102B000031F808B1FDF775FC13B000BD4038024044
:102B1000007000400348006840F4700001490860FC
:102B20007047000088ED00E070B50546AC6B0020F2
:102B3000E085E0842046FFF7C8FB70BD00BF00BF02
:102B400002680C3252E8002F22F4907102680C32B5
:102B500042E80013002BF3D100BF00BF00BF0268A2
:102B6000143252E8002F22F001010268143242E8C8
:102B70000013002BF3D100BF016B01290ED100BF60
:102B800000BF02680C3252E8002F22F010010268E8
:102B90000C3242E80013002BF3D100BF202180F853
:102BA0003E1000210163704710B504462068C068DC
:102BB00020F040002168C860202084F83D002046B5
:102BC000FFF77BFD002010BDF8B5044694F83E00E9
:102BD000222873D1A068B0F5805F0CD1206950B96C
:102BE0000025A66A20684068C0F308003080A06A0B
:102BF000801CA06215E0A56A0026A068B0F5805F81
:102C000003D0A06828B9206918B9206840682870E6
:102C100004E02068406800F07F002870A06A401C33
:102C2000A062E08D401E80B2E085002844D120687B
:102C3000C06820F020002168C8602068C06820F4C7
:102C400080702168C8602068406920F00100216818
:102C50004861202084F83E00206B012826D1002006
:102C6000206300BF00BF21680C3151E8001F21F034
:102C7000100021680C3141E80002002AF3D100BFA6
:102C80002068006800F0100010280AD100BF002062
:102C9000009020680068009020684068009000BFA5
:102CA00000BFA18D2046FFF70FFB02E02046FFF793
:102CB00003FD0020F8BD01E00020FBE70220F9E75A
:102CC0002DE9F84F04462068006920F44050E1687F
:102CD0000843216808612169A068084361690843C5
:102CE000E169084300902068C06849F20C6188439C
:102CF000009908432168C8602068406920F440704A
:102D0000A1690843216848617A49206888420BD04C
:102D100079492068884207D078492068884203D0E2
:102D200077492068884203D1FEF7F4FF814602E02C
:102D3000FEF7E0FF8146E069B0F5004F6BD102205D
:102D40006168A0FB015003461920A9FB00700146F1
:102D50002A463846FDF75EFA6421B0FBF1F04FEAEF
:102D6000001A02206168A0FB01510B461920A9FB43
:102D700000712A463846FDF74DFA83460220616805
:102D8000A0FB015003461920A9FB00712A463846D2
:102D9000FDF740FA6421B0FBF1F000EBC00101EB5C
:102DA0000010ABEB8000322101EBC0006421B0FBCE
:102DB000F1F000F0F8000AEB400A02206168A0FB85
:102DC000015003461920A9FB00712A463846FDF739
:102DD00021FA834602206168A0FB015003461920B6
:102DE000A9FB00712A463846FDF714FA6421B0FBAE
:102DF000F1F000EBC00101EB0010ABEB80003221E1
:102E000001EBC0006421B0FBF1F000F0070050447A
:102E1000216888606CE004206168A0FB01510B46CA
:102E20001920A9FB00712A463846FDF7F3F98246BE
:102E300004206168A0FB015003461920A9FB007023
:102E400001462A463846FDF7E5F96421B0FBF1F06A
:102E500000EBC00101EB0010AAEB8000322101EB76
:102E600000106421B0FBF1F000F0F00A042061686A
:102E7000A0FB017003461920A9FB005001463A4609
:102E80002846FDF7C7F96421B0FBF1F00AEB001A00
:102E900004206168A0FB01511920A9FB0070804645
:102EA0002A460B4638464146FDF7B4F983460420CE
:102EB0006168A0FB015003461920A9FB0070014680
:102EC0002A463846FDF7A6F96421B0FBF1F000EB85
:102ED000C00101EB0010ABEB8000322101EB0010D0
:102EE0006421B0FBF1F000F00F00504421688860CD
:102EF000BDE8F88F001001400014014000180140A7
:102F0000001C0140014691F83D00212828D1886825
:102F1000B0F5805F0BD1086948B90A6A1088C0F320
:102F200008000B685860086A801C086205E00B6A9C
:102F3000581C086218780B685860C88C401E80B214
:102F4000C88458B90868C06820F080000B68D86051
:102F50000868C06840F040000B68D86000207047E7
:102F60000220FCE710B50248FFF7B0F910BD0000E1
:102F70000C0100202DE9F04104460D46D4F8C8723A
:102F800004F53070D4F8D41250F8210010B90320A1
:102F9000BDE8F08104F53070D4F8D41250F8216007
:102FA00005F00F0000EB800104F1140000EB81003C
:102FB000406838B305F00F0000EB800104F1140005
:102FC00000EB8100416805F00F0000EBC00207F143
:102FD0003C0000EB8200C068B1FBF0F200FB121075
:102FE00080B9002105F00F0000EB800204F114000D
:102FF00000EB8200416000231A462946204601F07A
:103000002EF917E00020C6F8140204F53170D4F848
:10301000D41250F82100006960B1D6F8080204F516
:103020003171D4F8D42251F822102A460B6906F5E2
:10303000047198470020ABE770B504460E4604F5CE
:103040003070D4F8D41250F82150D4F8D41250F87B
:10305000210008B9032070BD3146204600F059FF19
:10306000C5F80C02D5F8040204F53171D4F8D43255
:1030700051F82310CA6805F5037190470020EAE76C
:1030800070B504460D4630480178204600F013FE26
:1030900000212D48007800F00F0000EB800204F1C1
:1030A000140000EB8200018228480178204600F0DD
:1030B00002FE00212548007800F00F0000EB80029E
:1030C00004F5AA7000EB82000182214801782046B5
:1030D00000F0F1FD00211E48007800F00F0000EB29
:1030E000800204F1140000EB82000182184800788D
:1030F00000F00F0000EB800204F1140000EB8200EE
:10310000418204F53070D4F8D41250F82100C8B1CF
:1031100004F53171D4F8D42251F822104868804760
:1031200004F53071D4F8D42251F8220001F0C0FB2C
:10313000002104F53070D4F8D42240F82210002089
:10314000C4F8BC02002070BDFF0000200001002078
:103150000101002070B5044604F53070D4F8D41293
:1031600050F821500DB9032070BD04F53170D4F82A
:10317000D41250F8210098B195F80002FF280FD022
:1031800095F8012295F8000204F53171D4F8D46263
:1031900051F826108B6829469847FF2085F80002D1
:1031A0000020E1E701460A2008800148704700003E
:1031B000780000202DE9F041044682210D4800F0FE
:1031C000A0FC054601210B4800F09BFC064681212E
:1031D000084800F096FC07460DB11020A8710EB10A
:1031E0004020B0800FB14020B880432020800148AB
:1031F000BDE8F081BC0000202DE9F04104468221A9
:103200000E4800F07EFC054601210C4800F079FCD8
:1032100006468121094800F074FC07460DB11020D4
:10322000A87116B14FF40070B08017B14FF4007060
:10323000B880432020800148BDE8F081BC00002018
:103240002DE9F041044682210D4800F05AFC054664
:1032500001210B4800F055FC06468121084800F08A
:1032600050FC07460DB11020A8710EB14020B0806F
:103270000FB14020B880432020800148BDE8F08194
:10328000BC00002070B504460E464FF4077001F0F4
:1032900011FB054645B9002104F53070D4F8D4225D
:1032A00040F82210022070BD4FF407712846FCF749
:1032B000FBFF04F53070D4F8D41240F82150D4F854
:1032C000D41250F82100C4F8BC02207C98BB4FF403
:1032D0000073022250480178204600F0BDFE012113
:1032E0004D48007800F00F0000EB800204F114005C
:1032F00000EB820001824B020222484801782046FE
:1033000000F0AAFE01214548007800F00F0000EB14
:10331000800204F5AA7000EB82000182102140486F
:10332000007800F00F0000EB800204F1140000EBC5
:103330008200418232E0FFE74023022236480178D2
:10334000204600F089FE01213348007800F00F008C
:1033500000EB800204F1140000EB820001824023A4
:1033600002222E480178204600F076FE01212B48EB
:10337000007800F00F0000EB800204F5AA7000EB6B
:103380008200018210212648007800F00F0000EB37
:10339000800204F1140000EB820041820823032222
:1033A0001F480178204600F057FE01211C48007894
:1033B00000F00F0000EB800204F1140000EB82002B
:1033C00001820020C5F8040204F53171D4F8D4223A
:1033D00051F82210086880470020C5F81402C5F88B
:1033E0001802D5F8040208B902205CE7207C48B92D
:1033F0004FF40073094801782046D5F8042200F004
:1034000043FE07E04023054801782046D5F8042212
:1034100000F03AFE002046E7FF00002000010020F7
:103420000101002070B5044604F53070D4F8D412C0
:1034300050F82150D4F8D41250F8210008B90320D4
:1034400070BD207C48B94FF40073094801782046CC
:10345000D5F8042200F018FE07E040230448017864
:103460002046D5F8042200F00FFE0020E8E7000017
:1034700000010020024609B90320704702F53170AF
:10348000D2F8D43240F823100020F6E710B50246F7
:1034900002F53070D2F8D44250F824300BB9032032
:1034A00010BDC3F804120020FAE730B503460C46FD
:1034B00003F53070D3F8D45250F8251009B9032021
:1034C00030BDC1F80842C1F810220020F8E72DE90C
:1034D000FC4105460C4605F53070D5F8D41250F87D
:1034E0002160002001900090804616B90320BDE8BD
:1034F000FC81207800F0600000283DD020287CD19D
:10350000E08868B3207800F08000B8B1E288607885
:1035100005F53171D5F8D4C251F82C108B683146BD
:103520009847E088072801D9072000E0E08807468F
:103530003A463146284600F015F91CE0607886F8D6
:103540000002E088402801D2E08800E0402086F8B0
:10355000010296F801223146284600F0E2F80AE01E
:10356000607805F53171D5F8D42251F82210002287
:103570008B682146984747E0607830B1012832D007
:103580000A2813D00B282FD121E095F89C0203289C
:1035900005D102226946284600F0E4F805E02146FC
:1035A000284600F0B2F84FF0030824E095F89C029A
:1035B000032805D1012201A9284600F0D3F805E02F
:1035C0002146284600F0A1F84FF0030813E095F8D3
:1035D0009C02032805D02146284600F096F84FF0BB
:1035E000030808E009E006E02146284600F08DF8CF
:1035F0004FF0030800BF00BF06E02146284600F058
:1036000084F84FF0030800BF00BF40466FE700009A
:1036100070B5044604F53070D4F8D41250F8215037
:103620000126D4F8D41250F8210008B9032070BD47
:10363000D5F81402C8B90120C5F814020C48007866
:1036400000F00F0000EB800204F1140000EB820098
:10365000D5F810124160064801782046D5F810329E
:10366000D5F8082200F0FBFD00263046DFE7000019
:10367000FF00002070B504460D460026D4F8B802BD
:10368000294642682046904700B10326304670BD67
:1036900070B504460D4694F89C02012804D0022817
:1036A00003D003280CD101E000BF00BF68880128C7
:1036B00005D10020C4F8A402204600F064F804E01C
:1036C0002946204600F021F800BF00BF70BD024629
:1036D0000020704702460020704770B506460C4631
:1036E00015462B4622460021304600F0CDFC002036
:1036F00070BD70B506460C4615462B462246002185
:10370000304600F0ACFD002070BD70B504460D469B
:103710008021204600F077FD0021204600F073FD57
:1037200070BD70B504460E4615460320C4F89402D9
:103730004FF4AC700551001D05512B463246002157
:10374000204600F0A1FC002070BD10B50446052005
:10375000C4F8940200231A461946204600F094FC4F
:10376000002010BD70B504460E4615460220C4F870
:103770009402A561E5612B4632460021204600F007
:103780006EFD002070BD10B504460420C4F89402FC
:1037900000231A461946204600F061FD002010BDA6
:1037A00070B505460C462DB92246064906A000F024
:1037B00012FA04E02246034903A000F00CFA014883
:1037C00070BD00002C04002043444320436F6E660C
:1037D0006967000002461220088001487047000017
:1037E0002C00002070B505460C462DB9224606492E
:1037F00006A000F0F0F904E02246034903A000F01F
:10380000EAF9014870BD00002C0400204344432025
:10381000496E7465726661636500000002460420AB
:1038200008800148704700004000002070B5054640
:103830000C462246024903A000F0CDF9004870BDB5
:103840002C04002053544D6963726F656C6563747A
:10385000726F6E696373000070B505460C462DB932
:103860002246064906A000F0B6F904E022460349C4
:1038700003A000F0B0F9014870BD00002C04002046
:1038800053544D3332205669727475616C20436F06
:103890006D506F727400000070B505460C461A201A
:1038A0002080FCF7A9FD014870BD00004400002005
:1038B00070B504460D46E888012804D02946204604
:1038C000FFF723FF1EE094F89C02012804D0022891
:1038D00003D0032810D109E000BF0020A06001221E
:1038E00004F108012046FFF73DFF0AE00122211DF7
:1038F0002046FFF737FF04E029462046FFF705FF83
:1039000000BF00BF70BDF8B504460E460020009011
:103910000027002570880012082875D2DFE800F023
:10392000C7040C20C7C7A5B5207CD4F8B4120A6818
:10393000694690470746C1E0207C40B9D4F8B802F8
:10394000816A6846884707460220787007E0D4F805
:10395000B802C16A68468847074602207870ADE021
:10396000B078062878D2DFE800F00316293C5063CF
:10397000D4F8B402406838B1207CD4F8B4124A6854
:1039800069469047074605E031462046FFF7BDFEF1
:10399000681CC5B267E0D4F8B402806838B1207CF6
:1039A000D4F8B4128A6869469047074605E0314664
:1039B0002046FFF7AAFE681CC5B254E0D4F8B40252
:1039C000C06838B1207CD4F8B412CA686946904700
:1039D000074605E031462046FFF797FE681CC5B252
:1039E00041E0D4F8B402006938B1207CD4F8B412B4
:1039F0000A6969469047074605E031462046FFF7C9
:103A000084FE681CC5B22EE051E0D4F8B4024069CF
:103A100038B1207CD4F8B4124A6969469047074609
:103A200005E031462046FFF770FE681CC5B21AE07B
:103A3000D4F8B402806940B1207CD4F8B4128A6909
:103A400069469047074606E006E031462046FFF704
:103A50005CFE681CC5B206E031462046FFF755FE05
:103A6000681CC5B200BF00BF28E0207C30B9D4F884
:103A7000B802416B68468847074605E03146204654
:103A8000FFF743FE681CC5B218E0207C40B9D4F8AB
:103A9000B802016B6846884707460720787005E042
:103AA00031462046FFF731FE681CC5B206E03146BC
:103AB0002046FFF72AFE681CC5B200BF00BF05B153
:103AC000F8BDF088C0B1BDF8000080B1F088BDF845
:103AD0000010884202DDBDF8000000E0F088009090
:103AE000BDF8002039462046FFF73CFE07E031468E
:103AF0002046FFF70AFE02E02046FFF744FE00BF23
:103B0000DEE72DE9F84105460F462C462E464FF0DC
:103B1000000870883178884218DD307800900FE016
:103B20006946204600F020F804466078052807D151
:103B3000A04698F80200B84200D106E04FF0000815
:103B40007088BDF800108842EADC00BF4046BDE83E
:103B5000F881014600200A4602E0431CD8B2521CFC
:103B60001378002BF9D1704710B5024610460B8828
:103B7000047823440B800378981810BD70B5044670
:103B80000D4694F89C02012804D0022803D0032893
:103B90001AD101E000BF00BFE888022804D02946FE
:103BA0002046FFF7B2FD14E00120E060D4F8A40243
:103BB00018B1E06840F00200E060022204F10C015C
:103BC0002046FFF7CFFD04E029462046FFF79DFD84
:103BD00000BF00BF70BD2DE9F04107460D4690467D
:103BE00000240FB9BDE8F0813E463046FFF7B1FF33
:103BF000022101EB4000A8F8000098F800002855C9
:103C0000601CC4B203202855601CC4B208E03078A0
:103C10002855761C601CC4B200202855601CC4B214
:103C200030780028F3D100BFDCE70146002031B135
:103C3000012906D0022906D0032908D105E0002079
:103C400007E0032005E0012003E0032001E003205A
:103C500000BF00BF70472DE9F04104460D461646EF
:103C600014B90320BDE8F0810020C4F8B802C4F8FC
:103C7000C402C4F8D0020DB1C4F8B452012084F8D3
:103C80009C022670204600F04DF907463846E9E7C9
:103C90002DE9F04104460D46002600272946D4F8B8
:103CA000C802FCF7D4FE06463046FFF7BEFF0746C3
:103CB0003846BDE8F0812DE9F04104460D46002666
:103CC00000272946D4F8C802FCF78CFE0646304689
:103CD000FFF7ABFF07463846BDE8F0812DE9F04716
:103CE00004460F469146002F56D104F11405D4F82E
:103CF0009402022846D1D5E9020188420FD9D5E9BC
:103D00000201401AA86049462046AA68FFF7F1FC64
:103D100000231A461946204600F0B6F932E0D5E9EC
:103D20000210884217D1E9686868884213D368682E
:103D3000D4F8981288420ED2002211462046FFF78E
:103D4000D8FC0020C4F8980200231A4619462046E1
:103D500000F09AF916E094F89C0203280BD1D4F8ED
:103D6000B802C06838B10020C4F8D402D4F8B80250
:103D7000C168204688478021204600F044FA20464A
:103D8000FFF7E3FC94F8A00250B3204600F0BEFA1F
:103D9000002084F8A00223E047F080012046FFF7CE
:103DA00096FC0646FF2E1BD0D6B994F89C02032839
:103DB00016D104F52E7050F82600406980B1C4F881
:103DC000D46204F52E7050F8260039464269204628
:103DD00090478046B8F1000F02D04046BDE8F0871A
:103DE0000020FBE72DE9F04705460F4690464FF0CF
:103DF0000009002F51D105F5AA76D5F894020328C1
:103E00006FD1D6E90201884210D9D6E90201401AE1
:103E1000B060D6E90201884201D2B06800E0F068E3
:103E2000024641462846FFF758FC5AE095F8AA0298
:103E300000F01F0020B1012804D0022812D109E0AF
:103E4000002411E040F2AE20415D2846FFF742FC1D
:103E5000044609E040F2AE20415D2846FFF737FCFA
:103E6000044601E0002400BF00BF94B995F89C020D
:103E700003280ED105F52E7050F82400006940B1DA
:103E8000C5F8D44205F52E7050F824000169284683
:103E900088472846FFF777FC23E007F07F01284694
:103EA000FFF715FC0446FF2C1BD0D4B995F89C02F3
:103EB000032810D105F52E7050F82400806950B108
:103EC000C5F8D44205F52E7050F8240039468269B1
:103ED000284690478146B9F1000F02D04846BDE818
:103EE000F0870020FBE701460020704770B50446CC
:103EF0000025012084F89C02D4F8B80238B1217959
:103F0000D4F8B80242682046904700B103252846FD
:103F100070BD70B504460D462946D4F8C802FCF7BA
:103F2000D4FD70BD10B50446207800282BD1174869
:103F3000C0F80845C4F8C8024FF0A0401349086013
:103F40000620486002211148C16000210161022160
:103F500081610021C161016241628162C1620163CC
:103F6000FDF73BFA08B1FCF744FA80210748FCF75B
:103F7000BEFC402200210548FCF7BEFC8022012146
:103F80000248FCF7B9FC002010BD00002C160020F0
:103F900010B50246D2F8C83201F08000802809D15D
:103FA00001F07F0000EBC00403F13C0000EB840053
:103FB000807810BD01F07F0000EBC00403F51F7096
:103FC00000EB84008078F4E770B504460D4604F5F4
:103FD0002E70D4F8D41250F8210008B9032070BD17
:103FE00094F89C02032811D104F52E70D4F8D41251
:103FF00050F82100006A48B104F52E70D4F8D412AC
:1040000050F821002946026A204690470020E6E742
:1040100070B504460D4604F52E70D4F8D41250F84D
:10402000210008B9032070BD94F89C02032811D127
:1040300004F52E70D4F8D41250F82100406A48B12B
:1040400004F52E70D4F8D41250F821002946426AA3
:10405000204690470020E6E72DE9F04704460F464A
:1040600015461E464FF00008C1462B4632463946DB
:10407000D4F8C802FCF734FD80464046FFF7D5FD72
:1040800081464846BDE8F0872DE9F04704460D46D5
:1040900016461F464FF00008C1463B4632462946A9
:1040A000D4F8C802FCF762FD80464046FFF7BDFD2C
:1040B00081464846BDE8F08770B5044600250120DA
:1040C00084F89C020020C4F894026060C4F8A40242
:1040D00084F8A002D4F8B80258B1D4F8B802406805
:1040E00038B12179D4F8B80242682046904700B12F
:1040F00003254023002211462046FFF7ADFF012192
:104100004FF4B27001534021001F0151402300229F
:1041100080212046FFF7A0FF0121A18440212162D8
:10412000284670BD014691F89C02042803D191F8FD
:104130009D0281F89C020020704710B5044694F857
:104140009C0203280BD1D4F8B80240B1D4F8B802CD
:10415000C06920B1D4F8B802C16920468847002060
:1041600010BD02461174002070472DE9F04104464D
:104170000D46002600272946D4F8C802FDF768FA44
:1041800006463046FFF751FD07463846BDE8F08148
:1041900070B504460D46294604F2AA2000F077F8CF
:1041A0000120C4F894024FF42C70005BC4F898020C
:1041B00094F8AA0200F01F0020B1012809D00228BB
:1041C00015D10DE004F2AA21204600F083F906463D
:1041D00016E004F2AA21204600F013FB06460FE089
:1041E00004F2AA21204600F0CCF9064608E094F833
:1041F000AA0200F08001204600F005F8064600BF44
:1042000000BF304670BD2DE9F04104460D46002642
:1042100000272946D4F8C802FCF7D4FC06463046ED
:10422000FFF703FD07463846BDE8F08170B5044648
:1042300000250026D4F8C802FDF72EFA05462846C8
:10424000FFF7F3FC0646304670BD014691F89C022C
:1042500081F89D02042081F89C02002070472DE91E
:10426000F04704460D4616461F464FF00008C1466B
:104270003B4632462946D4F8C802FCF7E8FC8046A3
:104280004046FFF7D2FC81464846BDE8F08770B54E
:1042900005460E46344620782870641C20786870E5
:1042A000641C2046FEF7CFFB6880641C641C20461B
:1042B000FEF7C9FBA880641C641C2046FEF7C3FB04
:1042C000E88070BD38B504460D46002000900DB959
:1042D000032038BDC4F8B85204F52E70D4F8D412B7
:1042E00050F82100C06A50B104F52E70D4F8D422E1
:1042F00050F82200C16A68468847C4F8D002D4F852
:10430000D802401CC4F8D8020020E2E70146002091
:10431000704770B504460D46A88810BBE88800BBFE
:10432000688880281DD2A87800F07F0694F89C0247
:10433000032804D129462046FFF7E7F915E084F861
:104340009E6231462046FFF710FF2046FFF71BFA1A
:104350001EB1022084F89C0207E0012084F89C0230
:1043600003E029462046FFF7D0F970BD70B504463A
:104370000D460026D4F8B80230B1D4F8B802294668
:104380000268204690470646304670BD70B5044628
:104390000E460025B0783D4908700846007801288F
:1043A00005D931462046FFF7B0F9032070BD94F8D7
:1043B0009C02022802D0032859D11FE0334800781C
:1043C000C0B1324800786060304801782046FFF77D
:1043D000CDFF05463DB131462046FFF796F9022054
:1043E00084F89C0209E02046FFF7CDF9032084F809
:1043F0009C0202E02046FFF7C6F943E0234800781C
:1044000070B9022084F89C022048007860601F4840
:1044100001782046FFF72EF92046FFF7B4F925E092
:104420001A490978606888421DD021792046FFF733
:1044300021F9164800786060144801782046FFF79B
:1044400095FF05465DB131462046FFF75EF92179BB
:104450002046FFF70FF9022084F89C0206E0204670
:10446000FFF791F902E02046FFF78DF90AE03146A7
:104470002046FFF74AF9054801782046FFF7FAF889
:10448000032500BF00BF284690E70000740000200D
:1044900070B505460C466088012805D1C5F8A40210
:1044A0002846FFF770F90EE06088022807D1A0883F
:1044B000001285F8A0022846FFF765F903E02146BF
:1044C0002846FFF722F970BD10B504462046FFF7D5
:1044D000ADFE10BD70B504460D460026287800F0EC
:1044E000600088B1202802D0402842D100E000BFFF
:1044F00004F52E70D4F8D41250F8210029468268B1
:1045000020469047064639E068780A282AD2DFE834
:1045100000F01A24291F290A0529150F29462046CB
:10452000FFF7F1F923E029462046FFF7F2FE1EE0EF
:1045300029462046FFF72AFF064618E0294620466E
:10454000FFF7B6F913E029462046FFF717FB0EE008
:1045500029462046FFF79CFF09E029462046FFF741
:1045600097F804E029462046FFF7CFF800BF00BFC8
:1045700004E029462046FFF7C8F800BF00BF3046D8
:1045800070BD2DE9F04705460F464FF000093C7914
:10459000387800F06000F8B1202802D040287DD1A2
:1045A00000E000BF21462846FFF791F80646FF2E9F
:1045B00011D086B9C5F8D46205F52E7050F82600E2
:1045C000806840B105F52E7050F8260039468268A3
:1045D00028469047814610E1787800287AD0012853
:1045E0002FD003286ED195F89C02022802D0032810
:1045F00020D110E054B1802C08D021462846FFF786
:1046000002FE80212846FFF7FEFD03E039462846DA
:10461000FFF77BF813E0788840B93CB1802C05D0D7
:10462000F88818B921462846FFF7EDFD2846FFF720
:10463000AAF804E039462846FFF767F800BF00BF34
:10464000D4E095F89C02022802D003283BD110E068
:1046500054B1802C08D021462846FFF7D4FD802194
:104660002846FFF7D0FD03E039462846FFF74DF80E
:104670002EE0788820BB04F07F0018B12146284640
:10468000FFF706FB2846FFF77EF821462846FFF78E
:104690001EF80646FF2E13D096B900E0A8E0C5F834
:1046A000D46205F52E7050F82600806840B105F5FB
:1046B0002E7050F826003946826828469047814679
:1046C00006E007E08DE039462846FFF71EF800BFF8
:1046D00000BF8BE095F89C02022802D0032879D114
:1046E00026E034B1802C04D039462846FFF70DF877
:1046F00075E004F08000802808D104F07F0000EB12
:10470000800105F1140000EB810007E004F07F0058
:1047100000EB800105F5AA7000EB810080460020C7
:10472000C8F80000022241462846FFF71BF856E071
:1047300004F0800080280ED104F00F0000EB80010F
:1047400005F1140000EB8100008A98B9394628462B
:10475000FEF7DBFF43E004F00F0000EB800105F5FE
:10476000AA7000EB8100008A20B939462846FEF77E
:10477000CCFF34E004F08000802808D104F07F00F2
:1047800000EB800105F1140000EB810007E004F06C
:104790007F0000EB800105F5AA7000EB81008046E8
:1047A0000CB1802C03D10020C8F800000CE0214699
:1047B0002846FFF7EDFB20B10120C8F8000003E018
:1047C00008E00020C8F80000022241462846FEF713
:1047D000C9FF04E039462846FEF797FF00BF00BF37
:1047E00004E039462846FEF790FF00BF00BF04E012
:1047F00039462846FEF789FF00BF00BF4846BDE89E
:10480000F0872DE9F04105460E460027307800F08C
:10481000600030B1202802D0402840D100E000BF25
:1048200000BF95F89C02012804D0022803D0032879
:104830002ED101E000BF00BF3079012823D83179A3
:104840002846FEF747FF0446FF2C14D09CB905F517
:104850002E7050F82400806858B1C5F8D44205F590
:104860002E7050F82400314682682846904707464B
:1048700002E0032700E00327F08840B93FB928464B
:10488000FEF781FF03E031462846FEF73EFF04E0D5
:1048900031462846FEF739FF00BF00BF04E031462D
:1048A0002846FEF732FF00BF00BF3846BDE8F08162
:1048B000704700000146014870470000381B002087
:1048C00070B504460B4622461978587801282CD139
:1048D00040F61C0080581D7805F00F060125B540F4
:1048E000ADB2284340F61C05A85002F5106000EB5D
:1048F0004110006800F40040F0BB9889C0F30A0042
:104900001D7940EA854040EA815040F0805040F4F3
:10491000004002F5106505EB41152D68284302F5AE
:10492000106505EB411528602DE040F61C0080580D
:104930001D7805F00F060125B540144E06EA054521
:10494000284340F61C05A85002F5306000EB4110EA
:10495000006800F4004078B99889C0F30A001D7916
:1049600040EA854040F0805040F4004002F5306558
:1049700005EB41152D6800E005E0284302F53065A0
:1049800005EB41152860002070BD00000000FFFF0E
:1049900001460A464FF410608058C30ADB024FF408
:1049A0001060835040F60400805840F4807340F655
:1049B00004008350002070470FB470B504460A9875
:1049C000012817D1A06B20F48030A063E0681A4959
:1049D0000840E060E06820F44010E0601198012891
:1049E00003D1E06840F48010E060204600F026F833
:1049F000054612E0E06840F04000E060204600F02C
:104A00001DF805460E9820B9A06B40F48030A063D5
:104A100003E0A06B20F48030A0630898012807D140
:104A2000A06840F00600A060A06840F02000A060F0
:104A3000284670BC5DF814FBBFFFBDFF08B50146FA
:104A40000020009000BF0098401C0090104A009881
:104A5000904201D9032008BD086900F000400028F9
:104A6000F1D000200090086940F00100086100BF0B
:104A70000098401C0090064A0098904201D90320FB
:104A8000E9E7086900F001000028F1D100BFE2E782
:104A9000400D030070B504460B462246197858783D
:104AA000012848D102F5106000EB4110006800F0C9
:104AB0000040B0F1004F17D102F5106000EB41103B
:104AC000006840F0006502F5106000EB41100560E1
:104AD00002F5106000EB4110006840F0804502F5DF
:104AE000106000EB4110056040F63C0080581D78D6
:104AF00005F00F060125B540ADB2A84340F63C05D0
:104B0000A85040F61C0080581D7805F00F060125BE
:104B1000B540ADB2A84340F61C05A85002F51060A0
:104B200000EB411000682B4D284002F5106505EBA5
:104B3000411528604BE002F5306000EB4110006841
:104B400000F00040B0F1004F17D102F5306000EBEB
:104B50004110006840F0006502F5306000EB411044
:104B6000056002F5306000EB4110006840F08045C0
:104B700002F5306000EB4110056040F63C008058C3
:104B80001D7805F00F060125B540134E06EA0545D0
:104B9000A84340F63C05A85040F61C0085581878FC
:104BA00000F00F060120B0400B4E06EA004085439E
:104BB00040F61C00855002F5306000EB41100068A3
:104BC000064D284002F5306505EB411528600020B0
:104BD00070BD0000007833EC0000FFFF0078F3EFB9
:104BE00001460A46D2F8000E20F00300C2F8000E7B
:104BF00040F60400805820F0020340F60400835081
:104C00000020704701460A46D2F8000E20F003004B
:104C1000C2F8000E40F60400805840F0020340F64F
:104C200004008350002070470FB4F0B506460027FB
:104C30003546002405E0002106F5827040F8241076
:104C4000641C0F2CF7D31098A0B940F6040040590B
:104C500040F0020140F604004151B06B20F4001016
:104C6000B063306840F040003060306840F0800051
:104C7000306003E0B06B40F40010B0630020C5F872
:104C8000000ED5F80008C5F800080B9801280BD1D4
:104C9000089820B90021304600F0BCFD08E0012151
:104CA000304600F0B7FD03E00321304600F0B2FDCE
:104CB0001021304600F0B2FC00B10127304600F070
:104CC00083FC00B1012700214FF401604151001D18
:104CD000415140F61C00415100242EE005F51060C2
:104CE00000EB4410006800F00040B0F1004F10D11C
:104CF0003CB94FF0006105F5106000EB4410016015
:104D00000DE04FF0904105F5106000EB441001609C
:104D100005E0002105F5106000EB44100160002162
:104D200005F5106000EB441001614FF67F3105F589
:104D3000106000EB44108160641C0698A042CDD83E
:104D400000242EE005F5306000EB4410006800F010
:104D50000040B0F1004F10D13CB94FF0006105F5B3
:104D6000306000EB441001600DE04FF0904105F51C
:104D7000306000EB4410016005E0002105F5306073
:104D800000EB44100160002105F5306000EB441099
:104D900001614FF67F3105F5306000EB4410816012
:104DA000641C0698A042CDD84FF40160405920F40D
:104DB00080714FF4016041510020B0616FF080407C
:104DC0007061099818B9B06940F01000B061B0691D
:104DD00009490843B0610C9818B1B06940F0080067
:104DE000B0611098012803D1B06904490843B0614B
:104DF0003846F0BC5DF814FB00383C8004000040ED
:104E00000146886820F0010088600020704700009B
:104E1000F0B505460B4614462A46197858780128FD
:104E200075D1986920BB02F5106000EB4110006954
:104E30006D4E304002F5106606EB4116306102F50A
:104E4000106000EB4110006940F4002602F510608C
:104E500000EB4110066102F5106000EB41100069A3
:104E6000C60CF60402F5106000EB4110066137E055
:104E700002F5106000EB41100069C60CF60402F563
:104E8000106000EB4110066102F5106000EB41106C
:104E90000069554E304002F5106606EB4116306150
:104EA000DE689869B04201D9D868986102F510604F
:104EB00000EB4110006940F4002602F5106000EBA1
:104EC0004110066102F5106000EB411000699E6917
:104ED000C6F31206304302F5106606EB4116306148
:104EE000012C15D1586928B102F5106000EB411072
:104EF0005E69466102F5106000EB4110006840F009
:104F0000044602F5106000EB411006606AE01BE009
:104F100002F5106000EB4110006840F0044602F515
:104F2000106000EB41100660986900285AD040F6E6
:104F3000340080581E7806F00F070126BE4030432B
:104F400040F63406B0504DE002F5306000EB411001
:104F50000069C60CF60402F5306000EB41100661F2
:104F600002F5306000EB411000691F4E304002F541
:104F7000306606EB41163061986908B1D8689861CF
:104F8000D868D86102F5306000EB4110006940F448
:104F9000002602F5306000EB4110066102F530603A
:104FA00000EB41100069DE69C6F31206304302F5DA
:104FB000306606EB41163061012C07D1186928B123
:104FC00002F5306000EB41101E69466102F5306069
:104FD00000EB4110006840F0044602F5306000EB41
:104FE000411006600020F0BDFFFF07E070B50346EA
:104FF0000C4619461D6C1848854209D94FF430609B
:10500000405800F00040B0F1004F01D1002070BDC9
:105010000026C1F8106BD1F8100B40F40026C1F83F
:10502000106BD1F8100B40F01806C1F8106BD1F8D6
:10503000100B40F0C046C1F8106B012C09D1C1F82B
:10504000142B4FF43060405840F080264FF430600D
:1050500046500020DBE700000A30544F30B50446CC
:105060000B4622461978587801281ED102F51060A7
:1050700000EB4110006820F4001502F5106000EB11
:10508000411005601879032802D0187902282AD126
:1050900002F5106000EB4110006840F0805502F509
:1050A000106000EB411005601DE002F5306000EB80
:1050B0004110006820F4001502F5306000EB41104B
:1050C00005601879032802D0187902280BD102F55F
:1050D000306000EB4110006840F0805502F5306010
:1050E00000EB41100560002030BD30B504460B4692
:1050F000224619785878012821D102F5106000EB7A
:105100004110006800F0004060B959B102F510602C
:1051100000EB4110006820F0804502F5106000EBC4
:105120004110056002F5106000EB4110006840F48A
:10513000001502F5106000EB4110056020E002F55B
:10514000306000EB4110006800F0004060B959B1D8
:1051500002F5306000EB4110006820F0804502F558
:10516000306000EB4110056002F5306000EB41104B
:10517000006840F4001502F5306000EB4110056056
:10518000002030BD2DE9F84381460E4617464D46B6
:105190003478707801287DD1B06920BB05F51060A6
:1051A00000EB44100069C849084005F5106101EBA7
:1051B0004411086105F5106000EB4410006940F4EB
:1051C000002105F5106000EB4410016105F5106049
:1051D00000EB44100069C10CC90405F5106000EB38
:1051E0004410016155E005F5106000EB44100069C2
:1051F000C10CC90405F5106000EB4410016105F510
:10520000106000EB44100069AF49084005F51061DB
:1052100001EB44110861F168B0690844401EB0FB1D
:10522000F1F0A949C94301EAC04005F5106101EB5D
:1052300044110969084305F5106101EB4411086147
:1052400005F5106000EB44100069B169C1F312016B
:10525000084305F5106101EB44110861307901281C
:1052600017D105F5106000EB4410006920F0C04133
:1052700005F5106000EB4410016105F5106000EBCE
:105280004410006940F0005105F5106000EB441037
:10529000016100E07FE0012F36D1706928B105F58A
:1052A000106000EB441071694161307901281ED112
:1052B00040F60800405900F4807060B905F51060B0
:1052C00000EB4410006840F0005105F5106000EB61
:1052D000441001600BE005F5106000EB441000681D
:1052E00040F0805105F5106000EB4410016005F5B9
:1052F000106000EB4410006840F0044105F51060B8
:1053000000EB44100160DCE005F5106000EB441098
:10531000006840F0044105F5106000EB44100160A6
:10532000307901280FD0B0690028ECD040F6340065
:105330004059317801F00F0201219140084340F6B5
:1053400034014851BDE040F60800405900F4807037
:1053500060B905F5106000EB4410006840F00051A2
:1053600005F5106000EB441001600BE005F51060DE
:1053700000EB4410006840F0805105F5106000EB30
:10538000441001600097308B83B23278484631690F
:1053900000F0BEFA95E005F5306000EB44100069BE
:1053A000C10CC90405F5306000EB4410016105F53E
:1053B000306000EB441000694349084005F5306156
:1053C00001EB44110861B069D0B905F5306000EB1C
:1053D00044100069F168C1F31201084305F530611A
:1053E00001EB4411086105F5306000EB44100069E1
:1053F00040F4002105F5306000EB4410016128E025
:10540000F168B0690844401EB0FBF1F01FFA80F863
:10541000F06800FB08F0F06105F5306000EB441027
:1054200000692949C94301EAC841084305F53061CB
:1054300001EB4411086105F5306000EB4410006990
:10544000F169C1F31201084305F5306101EB441124
:105450000861012F07D1306928B105F5306000EBF4
:10546000441031694161307901281ED140F60800AD
:10547000405900F4807060B905F5306000EB4410CD
:10548000006840F0005105F5306000EB4410016009
:105490000BE005F5306000EB4410006840F08051EF
:1054A00005F5306000EB4410016005F5306000EB5D
:1054B0004410006840F0044105F5306000EB4410F2
:1054C00001600020BDE8F883FFFF07E078B50346E0
:1054D0000024009400201A464C78012C35D10C7819
:1054E00002F5106505EB4414246804F00044B4F19F
:1054F000004F60D10C7805EB4414246844F000663A
:105500000C7805EB441426600C7805EB44142468F1
:1055100044F080460C7805EB4414266000BF009CE4
:10552000641C009442F21075009CAC4201D9012029
:105530000AE00C7802F5106505EB4414246804F0C9
:105540000044B4F1004FEAD035E00C7802F5306544
:1055500005EB4414246804F00044B4F1004F2AD150
:105560000C7805EB4414246844F000660C7805EBD5
:10557000441426600C7805EB4414246844F08046FB
:105580000C7805EB4414266000BF009C641C00945A
:1055900042F21075009CAC4201D901200AE00C785F
:1055A00002F5306505EB4414246804F00044B4F1BE
:1055B000004FEAD000BF78BD0146886840F0010086
:1055C000886000207047000008B501460020009068
:1055D00000BF0098401C00900F4A0098904201D9EB
:1055E000032008BD086900F000400028F1D0002029
:1055F00000901020086100BF0098401C0090064AEF
:105600000098904201D90320EBE7086900F01000F0
:105610001028F1D00020E4E7400D030008B5024651
:105620000020009000BF0098401C0090104B009894
:10563000984201D9032008BD106900F000400028FD
:10564000F1D000200090202040EA8110106100BFBE
:105650000098401C0090064B0098984201D9032006
:10566000E9E7106900F020002028F1D00020E2E7EF
:10567000400D030010B501460B4640F60804E458FF
:1056800004F006020AB9002006E0022A01D0062A28
:1056900001D1022000E00F2010BD0146486900F052
:1056A0000100704701460B4640F61800C258001D25
:1056B000C058024090B2704701460B4640F61800B1
:1056C000C258001DC0580240100C704770B5024609
:1056D00013464FF40166F45840F63406F55801F0CD
:1056E0000F0625FA06F606F0010644EAC61403F58D
:1056F000106606EB4116B66806EA040070BD10B5E8
:105700000246134603F5306404EB4114A06840F6EA
:105710001404E458204010BD014648698A691040CD
:1057200070472DE9F04104460D46274628464FEACA
:10573000920C02F0030300210AE04FF4805858F85D
:105740000780C0F80080401C401C401C401C491CC5
:105750006145F2D39BB100214FF4805858F807609F
:1057600000BF4FEAC10826FA08F880F80080491CFB
:10577000401CA3F101081FFA88F3002BF1D1BDE80A
:10578000F08170B504460E460025E06820F0C04068
:10579000E060012E10D1E06840F00050E06000BFF2
:1057A0000120FAF7ADFE6D1C2046FFF776FF0128B9
:1057B00015D0322DF4D312E07EB9E06840F080407D
:1057C000E06000BF0120FAF79BFE6D1C2046FFF74A
:1057D00064FF20B1322DF5D301E0012070BD322DE0
:1057E00001D10120FAE70020F8E710B502460B4688
:1057F0001146D1F8000820F4FE60C1F80008D1F885
:1058000000084FF4FE6404EA03142043C1F80008C2
:10581000002010BD02461346D3F800080843C3F821
:10582000000800207047000030B503461446022CE3
:1058300049D12D48814204D32C48814201D20F2204
:1058400045E02A48814204D32948814201D20E22F0
:105850003DE02748814204D32648814201D20D22EF
:1058600035E02448814204D32348814201D20C22EE
:105870002DE02148814204D32048814201D20B22ED
:1058800025E01E48814204D31D48814201D20A22EC
:105890001DE01B48814204D31A48814201D20922EB
:1058A00015E01848814204D31748814201D20822EA
:1058B0000DE01548814204D31448814201D20722E9
:1058C00005E0062203E00CB9092200E00922D868AD
:1058D00020F47050D860D8684FF4705505EA8225DE
:1058E0002843D860002030BDC0ACD800C0E1E4003F
:1058F0000024F40080730601A0491A01002D310133
:1059000040A44C0100366E0120ABA6010048E8011E
:105910002DE9F04304460D461E46DDF81CC0A046A6
:105920002946BCF1000F12D1F01C870800230CE0BF
:10593000D1F8009008F5805000EB0230C0F80090DC
:10594000491C491C491C491C5B1CBB42F0D300206C
:10595000BDE8F08300BFFEE702480068C0F3022004
:10596000704700000CED00E010B5002804DB0A07CA
:10597000130E054A135406E00A07140E034A00F0FA
:105980000F031B1FD45410BD00E400E018ED00E02D
:1059900002E008C8121F08C1002AFAD170477047F8
:1059A000002001E001C1121F002AFBD17047000056
:1059B00010B5002821D0114B0022001F196803E008
:1059C000814203D80A4649680029F9D152B11368C7
:1059D000841A9C4204D1006818441060104602E00A
:1059E000506000E0186039B102680B1A934203D18D
:1059F0000B681A4402604968416010BD0401002030
:105A0000FAF796FEFDF72CF8FCF77AFEFCF79CFE01
:105A1000FCF7B6FE4FF4C84000F020F80446002022
:105A200008E00146C21700EB12621212A0EB02223C
:105A30002254401CB0F5C84FF3DB0DE0002505E013
:105A40004FF4C8412046FAF7B7FC6D1CB5F5C84FB6
:105A5000F6DB2046FFF7ACFFF0E70000F0B50B30B7
:105A6000154D20F007010024144A0FE003688B4213
:105A70000BD38B4205D95E1A43184768C3E9006708
:105A800000E04368136002C004E0021D10680028B3
:105A9000ECD12046002802D1286808B10020F0BDD2
:105AA000064A07481060074A121A22F00702C0E9A6
:105AB000002401202860D7E708010020040100200D
:105AC0005C1D002058E500200000000000000000E0
:105AD0000102030406070809000000000102030494
